{
  "_format": "hh-sol-artifact-1",
  "contractName": "Project",
  "sourceName": "contracts/Project.sol",
  "abi": [
    {
      "inputs": [
        {
          "internalType": "address",
          "name": "_projectGenerator",
          "type": "address"
        }
      ],
      "stateMutability": "nonpayable",
      "type": "constructor"
    },
    {
      "inputs": [
        {
          "internalType": "address",
          "name": "",
          "type": "address"
        }
      ],
      "name": "BUYERS",
      "outputs": [
        {
          "internalType": "uint256",
          "name": "baseDeposited",
          "type": "uint256"
        },
        {
          "internalType": "uint256",
          "name": "tokensOwed",
          "type": "uint256"
        }
      ],
      "stateMutability": "view",
      "type": "function"
    },
    {
      "inputs": [
        {
          "internalType": "address",
          "name": "_account",
          "type": "address"
        }
      ],
      "name": "getUserLocks",
      "outputs": [
        {
          "components": [
            {
              "internalType": "uint256",
              "name": "unlockTime",
              "type": "uint256"
            },
            {
              "internalType": "address",
              "name": "recipient",
              "type": "address"
            },
            {
              "internalType": "uint256",
              "name": "amount",
              "type": "uint256"
            }
          ],
          "internalType": "struct Project.TokenLock[]",
          "name": "",
          "type": "tuple[]"
        }
      ],
      "stateMutability": "view",
      "type": "function"
    },
    {
      "inputs": [
        {
          "internalType": "uint256",
          "name": "_rate",
          "type": "uint256"
        },
        {
          "internalType": "uint256",
          "name": "_minSpendPerBuyer",
          "type": "uint256"
        },
        {
          "internalType": "uint256",
          "name": "_maxSpendPerBuyer",
          "type": "uint256"
        },
        {
          "internalType": "uint256",
          "name": "_poolAmount",
          "type": "uint256"
        },
        {
          "internalType": "uint256",
          "name": "_startBlock",
          "type": "uint256"
        },
        {
          "internalType": "uint256",
          "name": "_endBlock",
          "type": "uint256"
        },
        {
          "internalType": "uint256",
          "name": "_cliff",
          "type": "uint256"
        },
        {
          "internalType": "uint256",
          "name": "_lockPeriod",
          "type": "uint256"
        },
        {
          "internalType": "uint256",
          "name": "_lockLevel",
          "type": "uint256"
        },
        {
          "internalType": "uint256",
          "name": "_tokenDecimals",
          "type": "uint256"
        },
        {
          "internalType": "uint256",
          "name": "_baseTokenDecimals",
          "type": "uint256"
        }
      ],
      "name": "initProject1",
      "outputs": [],
      "stateMutability": "nonpayable",
      "type": "function"
    },
    {
      "inputs": [
        {
          "internalType": "address payable",
          "name": "_projectOwner",
          "type": "address"
        },
        {
          "internalType": "address payable",
          "name": "_fundReceiver",
          "type": "address"
        },
        {
          "internalType": "contract IERC20",
          "name": "_token",
          "type": "address"
        },
        {
          "internalType": "address",
          "name": "_baseTokenAddr",
          "type": "address"
        },
        {
          "internalType": "uint256",
          "name": "_projectID",
          "type": "uint256"
        }
      ],
      "name": "initProject2",
      "outputs": [],
      "stateMutability": "nonpayable",
      "type": "function"
    },
    {
      "inputs": [],
      "name": "ownerForceSuccess",
      "outputs": [],
      "stateMutability": "nonpayable",
      "type": "function"
    },
    {
      "inputs": [],
      "name": "ownerWithdrawBaseToken",
      "outputs": [],
      "stateMutability": "nonpayable",
      "type": "function"
    },
    {
      "inputs": [],
      "name": "ownerWithdrawTokens",
      "outputs": [],
      "stateMutability": "nonpayable",
      "type": "function"
    },
    {
      "inputs": [],
      "name": "projectGenerator",
      "outputs": [
        {
          "internalType": "address",
          "name": "",
          "type": "address"
        }
      ],
      "stateMutability": "view",
      "type": "function"
    },
    {
      "inputs": [],
      "name": "projectID",
      "outputs": [
        {
          "internalType": "uint256",
          "name": "",
          "type": "uint256"
        }
      ],
      "stateMutability": "view",
      "type": "function"
    },
    {
      "inputs": [],
      "name": "projectInfo",
      "outputs": [
        {
          "internalType": "address payable",
          "name": "projectOwner",
          "type": "address"
        },
        {
          "internalType": "contract IERC20",
          "name": "token",
          "type": "address"
        },
        {
          "internalType": "contract IERC20",
          "name": "baseToken",
          "type": "address"
        },
        {
          "internalType": "uint256",
          "name": "rate",
          "type": "uint256"
        },
        {
          "internalType": "uint256",
          "name": "minSpendPerBuyer",
          "type": "uint256"
        },
        {
          "internalType": "uint256",
          "name": "maxSpendPerBuyer",
          "type": "uint256"
        },
        {
          "internalType": "uint256",
          "name": "poolAmount",
          "type": "uint256"
        },
        {
          "internalType": "uint256",
          "name": "startBlock",
          "type": "uint256"
        },
        {
          "internalType": "uint256",
          "name": "endBlock",
          "type": "uint256"
        },
        {
          "internalType": "address payable",
          "name": "fundReceiver",
          "type": "address"
        },
        {
          "internalType": "uint256",
          "name": "tokenDecimals",
          "type": "uint256"
        },
        {
          "internalType": "uint256",
          "name": "baseTokenDecimals",
          "type": "uint256"
        }
      ],
      "stateMutability": "view",
      "type": "function"
    },
    {
      "inputs": [],
      "name": "projectStatus",
      "outputs": [
        {
          "internalType": "uint256",
          "name": "",
          "type": "uint256"
        }
      ],
      "stateMutability": "view",
      "type": "function"
    },
    {
      "inputs": [],
      "name": "status",
      "outputs": [
        {
          "internalType": "bool",
          "name": "FORCE_FAILED",
          "type": "bool"
        },
        {
          "internalType": "bool",
          "name": "FORCE_SUCCESS",
          "type": "bool"
        },
        {
          "internalType": "uint256",
          "name": "TOTAL_BASE_COLLECTED",
          "type": "uint256"
        },
        {
          "internalType": "uint256",
          "name": "TOTAL_TOKENS_SOLD",
          "type": "uint256"
        },
        {
          "internalType": "uint256",
          "name": "TOTAL_TOKENS_WITHDRAWN",
          "type": "uint256"
        },
        {
          "internalType": "uint256",
          "name": "TOTAL_BASE_WITHDRAWN",
          "type": "uint256"
        },
        {
          "internalType": "uint256",
          "name": "NUM_BUYERS",
          "type": "uint256"
        }
      ],
      "stateMutability": "view",
      "type": "function"
    },
    {
      "inputs": [
        {
          "internalType": "address",
          "name": "",
          "type": "address"
        },
        {
          "internalType": "uint256",
          "name": "",
          "type": "uint256"
        }
      ],
      "name": "tokenLocks",
      "outputs": [
        {
          "internalType": "uint256",
          "name": "unlockTime",
          "type": "uint256"
        },
        {
          "internalType": "address",
          "name": "recipient",
          "type": "address"
        },
        {
          "internalType": "uint256",
          "name": "amount",
          "type": "uint256"
        }
      ],
      "stateMutability": "view",
      "type": "function"
    },
    {
      "inputs": [
        {
          "internalType": "uint256",
          "name": "_amount",
          "type": "uint256"
        }
      ],
      "name": "userDeposit",
      "outputs": [],
      "stateMutability": "payable",
      "type": "function"
    },
    {
      "inputs": [
        {
          "internalType": "uint256",
          "name": "lockIndex",
          "type": "uint256"
        }
      ],
      "name": "userUnlockTokens",
      "outputs": [],
      "stateMutability": "nonpayable",
      "type": "function"
    },
    {
      "inputs": [],
      "name": "userWithdrawBaseTokens",
      "outputs": [],
      "stateMutability": "nonpayable",
      "type": "function"
    },
    {
      "inputs": [],
      "name": "vestInfo",
      "outputs": [
        {
          "internalType": "uint256",
          "name": "cliff",
          "type": "uint256"
        },
        {
          "internalType": "uint256",
          "name": "lockPeriod",
          "type": "uint256"
        },
        {
          "internalType": "uint256",
          "name": "lockLevel",
          "type": "uint256"
        }
      ],
      "stateMutability": "view",
      "type": "function"
    }
  ],
  "bytecode": "0x608060405234801561001057600080fd5b506040516119b93803806119b983398101604081905261002f91610059565b6001600081905580546001600160a01b0319166001600160a01b0392909216919091179055610089565b60006020828403121561006b57600080fd5b81516001600160a01b038116811461008257600080fd5b9392505050565b611921806100986000396000f3fe60806040526004361061010e5760003560e01c80639c30ea51116100a5578063c7dc2fba11610074578063ccebfa3f11610059578063ccebfa3f14610410578063ed471ec414610453578063f868e7661461046857600080fd5b8063c7dc2fba146103c3578063c94c9927146103d857600080fd5b80639c30ea5114610349578063a94e7e801461035f578063bcb43a1d14610374578063c39e7dbb146103ae57600080fd5b806323a35de9116100e157806323a35de9146102ba5780636f7db044146102e757806374b68ce4146103095780638eb7199d1461032957600080fd5b806310c55f2b14610113578063185b6910146101615780631ab3330814610226578063200d2ed214610249575b600080fd5b34801561011f57600080fd5b5061014761012e366004611508565b6017602052600090815260409020805460019091015482565b604080519283526020830191909152015b60405180910390f35b34801561016d57600080fd5b50600254600354600454600554600654600754600854600954600a54600b54600c54600d546101b49b6001600160a01b039081169b81169a8116999897969594931691908c565b604080516001600160a01b039d8e1681529b8d1660208d0152998c16998b019990995260608a0197909752608089019590955260a088019390935260c087019190915260e086015261010085015290931661012083015261014082019290925261016081019190915261018001610158565b34801561023257600080fd5b5061023b61047b565b604051908152602001610158565b34801561025557600080fd5b50600e54600f546010546011546012546013546102839560ff80821696610100909204169490939092909187565b6040805197151588529515156020880152948601939093526060850191909152608084015260a083015260c082015260e001610158565b3480156102c657600080fd5b506102da6102d5366004611508565b6104fa565b604051610158919061152c565b3480156102f357600080fd5b5061030761030236600461158e565b610592565b005b34801561031557600080fd5b506103076103243660046115f2565b610651565b34801561033557600080fd5b50610307610344366004611664565b6106e9565b34801561035557600080fd5b5061023b60185481565b34801561036b57600080fd5b50610307610814565b34801561038057600080fd5b5060145460155460165461039392919083565b60408051938452602084019290925290820152606001610158565b3480156103ba57600080fd5b50610307610930565b3480156103cf57600080fd5b50610307610a8d565b3480156103e457600080fd5b506001546103f8906001600160a01b031681565b6040516001600160a01b039091168152602001610158565b34801561041c57600080fd5b5061043061042b36600461167d565b610b1c565b604080519384526001600160a01b03909216602084015290820152606001610158565b34801561045f57600080fd5b50610307610b68565b610307610476366004611664565b610cd0565b600e5460009060ff161561048f5750600390565b600a54421180156104a35750600854600f54105b156104ae5750600390565b600854600f54106104bf5750600290565b600e54610100900460ff16156104d55750600290565b60095442108015906104e95750600a544211155b156104f45750600190565b50600090565b6001600160a01b0381166000908152601960209081526040808320805482518185028101850190935280835260609492939192909184015b828210156105875760008481526020908190206040805160608101825260038602909201805483526001808201546001600160a01b031684860152600290910154918301919091529083529092019101610532565b505050509050919050565b6001546001600160a01b031633146105f15760405162461bcd60e51b815260206004820152601560248201527f4e6f742070726f6a6563742067656e657261746f72000000000000000000000060448201526064015b60405180910390fd5b6002805473ffffffffffffffffffffffffffffffffffffffff199081166001600160a01b0397881617909155600b805482169587169590951790945560038054851693861693909317909255600480549093169316929092179055601855565b6001546001600160a01b031633146106ab5760405162461bcd60e51b815260206004820152601560248201527f4e6f742070726f6a6563742067656e657261746f72000000000000000000000060448201526064016105e8565b60059a909a55600698909855600796909655600894909455600992909255600a55600c93909355600d93909355601491909155601591909155601655565b6106f16110d0565b6106f961047b565b6002146107365760405162461bcd60e51b815260206004820152600b60248201526a4e4f54205355434345535360a81b60448201526064016105e8565b33600090815260196020526040902080544291908390811061075a5761075a6116a9565b90600052602060002090600302016000015411156107ba5760405162461bcd60e51b815260206004820152601660248201527f596f752063616e206e6f7420756e6c6f636b207965740000000000000000000060448201526064016105e8565b3360008181526019602052604090208054610807929190849081106107e1576107e16116a9565b600091825260209091206003918202016002015490546001600160a01b03169190611129565b6108116001600055565b50565b6002546001600160a01b031633146108625760405162461bcd60e51b81526020600482015260116024820152702737ba10283937b532b1ba1027bbb732b960791b60448201526064016105e8565b61086a61047b565b6003146108a65760405162461bcd60e51b815260206004820152600a6024820152691393d50811905253115160b21b60448201526064016105e8565b6002546003546040516370a0823160e01b815230600482015261092e926001600160a01b039081169216906370a0823190602401602060405180830381865afa1580156108f7573d6000803e3d6000fd5b505050506040513d601f19601f8201168201806040525081019061091b91906116bf565b6003546001600160a01b03169190611129565b565b6109386110d0565b61094061047b565b60031461097c5760405162461bcd60e51b815260206004820152600a6024820152691393d50811905253115160b21b60448201526064016105e8565b336000908152601760205260408120601254600f5491929161099d916111d7565b825490915047906000906109be9084906109b89085906111ec565b906111f8565b905060008111610a105760405162461bcd60e51b815260206004820152601360248201527f4e4f5448494e4720544f2057495448445241570000000000000000000000000060448201526064016105e8565b8354601254610a1e91611204565b601255600084556004546001600160a01b0316610a6857604051339082156108fc029083906000818181858888f19350505050158015610a62573d6000803e3d6000fd5b50610a7f565b600454610a7f906001600160a01b03163383611129565b5050505061092e6001600055565b6002546001600160a01b03163314610adb5760405162461bcd60e51b81526020600482015260116024820152702737ba10283937b532b1ba1027bbb732b960791b60448201526064016105e8565b610ae361047b565b600114610aef57600080fd5b600654600f54610afe91611204565b60085410610b0b57600080fd5b600e805461ff001916610100179055565b60196020528160005260406000208181548110610b3857600080fd5b60009182526020909120600390910201805460018201546002909201549093506001600160a01b03909116915083565b6002546001600160a01b03163314610bb65760405162461bcd60e51b81526020600482015260116024820152702737ba10283937b532b1ba1027bbb732b960791b60448201526064016105e8565b610bbe61047b565b600214610bfb5760405162461bcd60e51b815260206004820152600b60248201526a4e4f54205355434345535360a81b60448201526064016105e8565b6004546001600160a01b0316610c4457600b546040516001600160a01b03909116904780156108fc02916000818181858888f19350505050158015610811573d6000803e3d6000fd5b600b54600480546040516370a0823160e01b8152309281019290925261092e926001600160a01b03908116929116906370a0823190602401602060405180830381865afa158015610c99573d6000803e3d6000fd5b505050506040513d601f19601f82011682018060405250810190610cbd91906116bf565b6004546001600160a01b03169190611129565b610cd86110d0565b610ce061047b565b600114610d2f5760405162461bcd60e51b815260206004820152600a60248201527f4e6f74204163746976650000000000000000000000000000000000000000000060448201526064016105e8565b6004546000906001600160a01b0316610d8757600654341015610d805760405162461bcd60e51b81526020600482015260096024820152681352538814d411539160ba1b60448201526064016105e8565b5034610dc8565b600654821015610dc55760405162461bcd60e51b81526020600482015260096024820152681352538814d411539160ba1b60448201526064016105e8565b50805b3360009081526017602052604081208054600754919291610de8916111d7565b600f54600854919250600091610dfd916111d7565b9050808211610e0c5781610e0e565b805b915081841115610e1c578193505b600d54600090610e3f90610e3190600a6117d2565b6005546109b89088906111ec565b905060008111610e915760405162461bcd60e51b815260206004820152600b60248201527f5a45524f20544f4b454e5300000000000000000000000000000000000000000060448201526064016105e8565b8354600003610eb05760138054906000610eaa836117de565b91905055505b8354610ebc9086611204565b84556001840154610ecd9082611204565b6001850155600f54610edf9086611204565b600f55601054610eef9082611204565b6010556004546001600160a01b031615610f1b57600454610f1b906001600160a01b0316333088611210565b601654600c54600091610f42916109b890610f3790600a6117d2565b6001890154906111ec565b33600090815260196020526040812054919250036110675760005b60165481101561106157610f9460405180606001604052806000815260200160006001600160a01b03168152602001600081525090565b81600003610fb357601454600a54610fac91906117f7565b8152610fde565b601554610fc190839061180a565b601454600a54610fd191906117f7565b610fdb91906117f7565b81525b3360208281018281526040808501878152600094855260198452908420805460018082018355918652939094209451600390930290940191825551918101805473ffffffffffffffffffffffffffffffffffffffff19166001600160a01b0390931692909217909155905160029091015580611059816117de565b915050610f5d565b506110c0565b60005b6016548110156110be57336000908152601960205260409020805483919083908110611098576110986116a9565b6000918252602090912060026003909202010155806110b6816117de565b91505061106a565b505b5050505050506108116001600055565b6002600054036111225760405162461bcd60e51b815260206004820152601f60248201527f5265656e7472616e637947756172643a207265656e7472616e742063616c6c0060448201526064016105e8565b6002600055565b6040516001600160a01b0383166024820152604481018290526111d29084907fa9059cbb00000000000000000000000000000000000000000000000000000000906064015b60408051601f198184030181529190526020810180517bffffffffffffffffffffffffffffffffffffffffffffffffffffffff167fffffffff0000000000000000000000000000000000000000000000000000000090931692909217909152611267565b505050565b60006111e38284611821565b90505b92915050565b60006111e3828461180a565b60006111e38284611834565b60006111e382846117f7565b6040516001600160a01b03808516602483015283166044820152606481018290526112619085907f23b872dd000000000000000000000000000000000000000000000000000000009060840161116e565b50505050565b60006112bc826040518060400160405280602081526020017f5361666545524332303a206c6f772d6c6576656c2063616c6c206661696c6564815250856001600160a01b031661134c9092919063ffffffff16565b8051909150156111d257808060200190518101906112da9190611856565b6111d25760405162461bcd60e51b815260206004820152602a60248201527f5361666545524332303a204552433230206f7065726174696f6e20646964206e60448201527f6f7420737563636565640000000000000000000000000000000000000000000060648201526084016105e8565b606061135b8484600085611363565b949350505050565b6060824710156113db5760405162461bcd60e51b815260206004820152602660248201527f416464726573733a20696e73756666696369656e742062616c616e636520666f60448201527f722063616c6c000000000000000000000000000000000000000000000000000060648201526084016105e8565b600080866001600160a01b031685876040516113f7919061189c565b60006040518083038185875af1925050503d8060008114611434576040519150601f19603f3d011682016040523d82523d6000602084013e611439565b606091505b509150915061144a87838387611455565b979650505050505050565b606083156114c45782516000036114bd576001600160a01b0385163b6114bd5760405162461bcd60e51b815260206004820152601d60248201527f416464726573733a2063616c6c20746f206e6f6e2d636f6e747261637400000060448201526064016105e8565b508161135b565b61135b83838151156114d95781518083602001fd5b8060405162461bcd60e51b81526004016105e891906118b8565b6001600160a01b038116811461081157600080fd5b60006020828403121561151a57600080fd5b8135611525816114f3565b9392505050565b602080825282518282018190526000919060409081850190868401855b8281101561158157815180518552868101516001600160a01b0316878601528501518585015260609093019290850190600101611549565b5091979650505050505050565b600080600080600060a086880312156115a657600080fd5b85356115b1816114f3565b945060208601356115c1816114f3565b935060408601356115d1816114f3565b925060608601356115e1816114f3565b949793965091946080013592915050565b60008060008060008060008060008060006101608c8e03121561161457600080fd5b505089359b60208b01359b5060408b01359a60608101359a506080810135995060a0810135985060c0810135975060e0810135965061010081013595506101208101359450610140013592509050565b60006020828403121561167657600080fd5b5035919050565b6000806040838503121561169057600080fd5b823561169b816114f3565b946020939093013593505050565b634e487b7160e01b600052603260045260246000fd5b6000602082840312156116d157600080fd5b5051919050565b634e487b7160e01b600052601160045260246000fd5b600181815b8085111561172957816000190482111561170f5761170f6116d8565b8085161561171c57918102915b93841c93908002906116f3565b509250929050565b600082611740575060016111e6565b8161174d575060006111e6565b8160018114611763576002811461176d57611789565b60019150506111e6565b60ff84111561177e5761177e6116d8565b50506001821b6111e6565b5060208310610133831016604e8410600b84101617156117ac575081810a6111e6565b6117b683836116ee565b80600019048211156117ca576117ca6116d8565b029392505050565b60006111e38383611731565b6000600182016117f0576117f06116d8565b5060010190565b808201808211156111e6576111e66116d8565b80820281158282048414176111e6576111e66116d8565b818103818111156111e6576111e66116d8565b60008261185157634e487b7160e01b600052601260045260246000fd5b500490565b60006020828403121561186857600080fd5b8151801515811461152557600080fd5b60005b8381101561189357818101518382015260200161187b565b50506000910152565b600082516118ae818460208701611878565b9190910192915050565b60208152600082518060208401526118d7816040850160208701611878565b601f01601f1916919091016040019291505056fea26469706673582212204296d3e13ce7bcd3fea1694dcc05158212fc4db0d5ccc91062776b7861ff949764736f6c63430008120033",
  "linkReferences": {},
  "deployedLinkReferences": {}
}