{
  "_format": "hh-sol-artifact-1",
  "contractName": "ProjectFactory",
  "sourceName": "contracts/ProjectFactory.sol",
  "abi": [
    {
      "anonymous": false,
      "inputs": [
        {
          "indexed": true,
          "internalType": "address",
          "name": "previousOwner",
          "type": "address"
        },
        {
          "indexed": true,
          "internalType": "address",
          "name": "newOwner",
          "type": "address"
        }
      ],
      "name": "OwnershipTransferred",
      "type": "event"
    },
    {
      "anonymous": false,
      "inputs": [
        {
          "indexed": false,
          "internalType": "address",
          "name": "projectContract",
          "type": "address"
        }
      ],
      "name": "projectRegistered",
      "type": "event"
    },
    {
      "inputs": [
        {
          "internalType": "address",
          "name": "_address",
          "type": "address"
        },
        {
          "internalType": "bool",
          "name": "_allow",
          "type": "bool"
        }
      ],
      "name": "adminAllowProjectGenerator",
      "outputs": [],
      "stateMutability": "nonpayable",
      "type": "function"
    },
    {
      "inputs": [],
      "name": "owner",
      "outputs": [
        {
          "internalType": "address",
          "name": "",
          "type": "address"
        }
      ],
      "stateMutability": "view",
      "type": "function"
    },
    {
      "inputs": [
        {
          "internalType": "uint256",
          "name": "_index",
          "type": "uint256"
        }
      ],
      "name": "projectAtIndex",
      "outputs": [
        {
          "internalType": "address",
          "name": "",
          "type": "address"
        }
      ],
      "stateMutability": "view",
      "type": "function"
    },
    {
      "inputs": [
        {
          "internalType": "uint256",
          "name": "_index",
          "type": "uint256"
        }
      ],
      "name": "projectGeneratorAtIndex",
      "outputs": [
        {
          "internalType": "address",
          "name": "",
          "type": "address"
        }
      ],
      "stateMutability": "view",
      "type": "function"
    },
    {
      "inputs": [],
      "name": "projectGeneratorsLength",
      "outputs": [
        {
          "internalType": "uint256",
          "name": "",
          "type": "uint256"
        }
      ],
      "stateMutability": "view",
      "type": "function"
    },
    {
      "inputs": [
        {
          "internalType": "address",
          "name": "_projectAddress",
          "type": "address"
        }
      ],
      "name": "projectIsRegistered",
      "outputs": [
        {
          "internalType": "bool",
          "name": "",
          "type": "bool"
        }
      ],
      "stateMutability": "view",
      "type": "function"
    },
    {
      "inputs": [],
      "name": "projectsLength",
      "outputs": [
        {
          "internalType": "uint256",
          "name": "",
          "type": "uint256"
        }
      ],
      "stateMutability": "view",
      "type": "function"
    },
    {
      "inputs": [
        {
          "internalType": "address",
          "name": "_projectAddress",
          "type": "address"
        }
      ],
      "name": "registerProject",
      "outputs": [],
      "stateMutability": "nonpayable",
      "type": "function"
    },
    {
      "inputs": [],
      "name": "renounceOwnership",
      "outputs": [],
      "stateMutability": "nonpayable",
      "type": "function"
    },
    {
      "inputs": [
        {
          "internalType": "address",
          "name": "newOwner",
          "type": "address"
        }
      ],
      "name": "transferOwnership",
      "outputs": [],
      "stateMutability": "nonpayable",
      "type": "function"
    }
  ],
  "bytecode": "0x608060405234801561001057600080fd5b5061001a3361001f565b61006f565b600080546001600160a01b038381166001600160a01b0319831681178455604051919092169283917f8be0079c531659141344cd1fd0a4f28419497f9722a3daafe3b4186f6b6457e09190a35050565b6106ff8061007e6000396000f3fe608060405234801561001057600080fd5b50600436106100be5760003560e01c80637aaffd1611610076578063b196b3011161005b578063b196b30114610162578063ebbbf89414610175578063f2fde38b1461018857600080fd5b80637aaffd16146101495780638da5cb5b1461015157600080fd5b80636c665ca0116100a75780636c665ca014610116578063715018a61461012c57806377a774001461013657600080fd5b80632edf7fd3146100c357806362211e2b146100f3575b600080fd5b6100d66100d13660046105f0565b61019b565b6040516001600160a01b0390911681526020015b60405180910390f35b610106610101366004610625565b6101ae565b60405190151581526020016100ea565b61011e6101bb565b6040519081526020016100ea565b6101346101cc565b005b610134610144366004610625565b6101e0565b61011e610287565b6000546001600160a01b03166100d6565b610134610170366004610640565b610293565b6100d66101833660046105f0565b6102bc565b610134610196366004610625565b6102c9565b60006101a8600383610359565b92915050565b60006101a860018361036c565b60006101c7600161038e565b905090565b6101d4610398565b6101de60006103f2565b565b6101eb60033361036c565b61023c5760405162461bcd60e51b815260206004820152600960248201527f464f5242494444454e000000000000000000000000000000000000000000000060448201526064015b60405180910390fd5b61024760018261045a565b506040516001600160a01b03821681527f3fa39a35c06bf0ed936e65b6c63064392aab309222f99ecc6ccffc48e0a31f679060200160405180910390a150565b60006101c7600361038e565b61029b610398565b80156102b1576102ac60038361045a565b505050565b6102ac60038361046f565b60006101a8600183610359565b6102d1610398565b6001600160a01b03811661034d5760405162461bcd60e51b815260206004820152602660248201527f4f776e61626c653a206e6577206f776e657220697320746865207a65726f206160448201527f64647265737300000000000000000000000000000000000000000000000000006064820152608401610233565b610356816103f2565b50565b60006103658383610484565b9392505050565b6001600160a01b03811660009081526001830160205260408120541515610365565b60006101a8825490565b6000546001600160a01b031633146101de5760405162461bcd60e51b815260206004820181905260248201527f4f776e61626c653a2063616c6c6572206973206e6f7420746865206f776e65726044820152606401610233565b600080546001600160a01b038381167fffffffffffffffffffffffff0000000000000000000000000000000000000000831681178455604051919092169283917f8be0079c531659141344cd1fd0a4f28419497f9722a3daafe3b4186f6b6457e09190a35050565b6000610365836001600160a01b0384166104ae565b6000610365836001600160a01b0384166104fd565b600082600001828154811061049b5761049b61067c565b9060005260206000200154905092915050565b60008181526001830160205260408120546104f5575081546001818101845560008481526020808220909301849055845484825282860190935260409020919091556101a8565b5060006101a8565b600081815260018301602052604081205480156105e6576000610521600183610692565b855490915060009061053590600190610692565b905081811461059a5760008660000182815481106105555761055561067c565b90600052602060002001549050808760000184815481106105785761057861067c565b6000918252602080832090910192909255918252600188019052604090208390555b85548690806105ab576105ab6106b3565b6001900381819060005260206000200160009055905585600101600086815260200190815260200160002060009055600193505050506101a8565b60009150506101a8565b60006020828403121561060257600080fd5b5035919050565b80356001600160a01b038116811461062057600080fd5b919050565b60006020828403121561063757600080fd5b61036582610609565b6000806040838503121561065357600080fd5b61065c83610609565b91506020830135801515811461067157600080fd5b809150509250929050565b634e487b7160e01b600052603260045260246000fd5b818103818111156101a857634e487b7160e01b600052601160045260246000fd5b634e487b7160e01b600052603160045260246000fdfea2646970667358221220a036d010b63b970f4ea2ba9dd7e7f013111387fd60b301015287761da981058064736f6c63430008120033",
  "linkReferences": {},
  "deployedLinkReferences": {}
}